:20C400005AC9000038C4000098C90000010100000F1FFFF00000180000000CC40000002075
:0AC42000000014C4000032200000E8
:0EC42A003031323334353637383900000A00ED
:20C438006A14B01314C5674B474706432D3CC90ECA0F09880A7319830A73C509C80A1953F5
:20C458000A630F184858001848D56548C40EC80F1E530F630F184858001848D4C84500001A
:20C478001B83EB230D3CB01314C56A4BC90ECB0F1E530F630F184B5B00184BD9CB4A0000AC
:20C49800570316533692CD3717B3ED23B01314C5684B4848B01314C56B4B4B4BCA085A0E1A
:20C4B800C80B580F38F00F0008DA3BF00F003B5003003B9012001D20C90CCA0D1C530D63A4
:20C4D8000F184A5A00184AD96A4A4A4A3AB080000F24C50CC90D1C530D630F1849590018F2
:20C4F80049D569493AF07F004949461809590AD90B5A3890FF0F9B2364161001CA0CCB0D44
:20C518001C530D630F184B5B00184BDA10012F141F426E053F8016004A242F8369201F4213
:20C5380028202F8336242F8317242F83302092D36A05A2C36A05B2F0EFFF4005B24005002C
:20C558002820A2D34005D2932B205220A2B34005FD23A2D240054C3CC2932D200A20A2D264
:20C57800400582432820A2C36A05B1C010000C003F3C5F422E20CE0F5E53C24E2E204F4FFC
:20C598005F4F1420824F4E05D2832D20313C03432F3C5F422A20824F4E05C2932B200324E7
:20C5B8003F400600013C2F42824F2820213C1E424C054E4EC2932B200B245F422C20CD0FD5
:20C5D8005D53C24D2C204F4FCF4E0020D2832B20D2932B200B24C2932B200A2092C36A0550
:20C5F80082432820B1C010000C00023CA2D240052D1600134A143E433943074308434B43BE
:20C61800B2400001800192C38E0192B38E01FB230D143D40E4031D83FE230D16003CB2B0B1
:20C6380000038E01032492B38E01F9271A42800116428201CD0E3E40FF010EFACF065F0FD9
:20C658003FF007003E9000011128CC0E3C8000013D90000109281F535F0ECD063DF08FFF81
:20C678000FDD824F8201143C5B43123C3C4000010C8E3D9305243D90000102285B43083C3C
:20C698001F835F0ECD063DF08FFF0FDD824F82010C99032CC70AC806C90C4B93B1278247DE
:20C6B800800182488201B2B000038E01FC23461610012A141942CC01B240805ACC013F4096
:20C6D80000C49F000CC421243F401AC49F002AC41C243A402AC43A801AC45A0938401AC4E7
:20C6F8003C483D48CE0CCF0D1C530D630F184F5F00184FDE6F4F4F4F5F0600185B4F00C423
:20C718003E483F484B131A83EB2379C239D0085A8249CC01B0135ACB281610014A14C70C45
:20C73800C80DCA0EC90EC6083E400A000F43B0139AC73E502AC41A53EA4EFFFFCC07CD08CA
:20C758003E400A000F43B0139AC7C70CC80D0893EA230793E823069304341A53FA402D0029
:20C77800FFFF1A83CA430100099A092C6F4A1A83EA4901001953C94FFFFF099AF72B4616F3
:20C7980010010A14091409430A431B430F930424094D0D4C0C430D3C5C020D6D0969098E4C
:20C7B80004281CD35B02F82B033C095E5B02F42B1B435C020D6D09690A6A098E0A7F04283C
:20C7D8001CD35B02F62B043C095E0A6F5B02F12B0E490F4A09160A1610010A14CA0CCC0E6D
:20C7F800CE0FA2432820C24D2A203D401420B01372CAC24E2D20C2432B20C2432C20C2430B
:20C818002E204A4A824A6005B2F0FCFF6C0592C36A05A2D36A05B2D012004005034332D016
:20C83800180003431C4228200A161001B240805ACC01B01300CAB013FCCAB013AACAB01302
:20C858002ACA034332D20343B013C6CAB01392C8824C4620824D482003430D143D403282C9
:20C878001D83FE230D161C424620B01314CB3C4036C4B013D4C9EA3F03437C4044004D4381
:20C898006E43B013DAC83C4000203D4030206E43B01372CA5C4230205C0F4C4CB01328CBAA
:20C8B8005F4230203FF00F0047180F5F5E4231200E5F3EB000800F7F3FE30D43B0134ECABD
:20C8D8001001A2432820C24D2A20C24E2B20C2432D20C2432C20C2432E204C4C824C60058D
:20C8F800B2F0FCFF6C0592C36A05A2D36A05B2D012004005034332D0180003431C42282045
:20C9180010010A141A4108001B410A000F184D5D00184DDC0F184F5F00184FDE0B9302201B
:20C938000A930D240C430E43AD000100FD4FFFFF1C530E630E9BF82B02200C9AF52B0A16C5
:20C9580010010A141C530D630F184D5D00184DDC2C4D1B4D02000B9302200C930F24CA0E52
:20C97800CD0F1E530F630F184D5D00184DDACD4300001C830B73F3230C93F1230A161001A9
:20C998000A142182CB0CCA0DCC0ECD0FCE0BCF0ACA0ECB0F1A530B630F184B5B00184BDA11
:20C9B8001A4B0200A14B0000814A02003E5005000F63B0131AC921520A1610011A14C90CED
:20C9D8000A430B3CCF090F5ACF9300000524CF090F5A6C4FB013E2CA1A53CC09B0133ACB6A
:20C9F8000A9CF02B1916100132D04000B24010008601B240B0008201B2401E008401003C5D
:20CA1800034332C04000B0130CC6B24000018801100192D30005B2D080000005F2400600BB
:20CA38000605C2430705B2408120080592C3000592431A051001021232C20343824CD004D3
:20CA5800824DD204824EE004824FE2041C42E4041D42E6043241034310010A144A43073C67
:20CA78004F4A0F5C4B4A0B5DEB4F00005A534A9EF72B0A16100131400030B01356CB0C9357
:20CA98000224B013CAC60C43B01344C81C43B01350CB92434005B2D0800F4005B2400A003E
:20CAB800460592C34005B2D020006A051001F240CE003020D24331207C4044005D433E4083
:20CAD80030206F43B013F2C71001D2B30A05FD23A2B31C05FD274C4C824C0E05D2B30A0554
:20CAF800FD231001F2D00C000A02F2F0F3000C02F2D030000A0292C3300110013E403220CB
:20CB1800B01334C73C403220B013D4C90C4310011F434E43023C5F025E534E9CFC2BCC0F82
:20CB380010013F431F537E4C0E93FC23CC0F100132D01000FD3F03430343FF3F03431C43A5
:04CB580010011001B7
:04FF8000FFFFFFFF81
:04FF8400FFFFFFFF7D
:02FFDA0048CB12
:02FFDC0048CB10
:02FFDE0048CB0E
:02FFE00026C534
:02FFE20048CB0A
:02FFE40048CB08
:02FFE60048CB06
:02FFE80048CB04
:02FFEA0048CB02
:02FFEC0048CB00
:02FFEE0048CBFE
:02FFF00048CBFC
:02FFF20048CBFA
:02FFF40048CBF8
:02FFF60048CBF6
:02FFF80048CBF4
:02FFFA0048CBF2
:02FFFC0048CBF0
:02FFFE008ECAA9
:00000001FF
